{
  "contractName": "DumbContract",
  "abi": [
    {
      "constant": true,
      "inputs": [],
      "name": "arrayParamLength",
      "outputs": [
        {
          "name": "",
          "type": "uint256"
        }
      ],
      "payable": false,
      "stateMutability": "view",
      "type": "function"
    },
    {
      "constant": true,
      "inputs": [],
      "name": "someAddress",
      "outputs": [
        {
          "name": "",
          "type": "address"
        }
      ],
      "payable": false,
      "stateMutability": "view",
      "type": "function"
    },
    {
      "constant": true,
      "inputs": [],
      "name": "counter",
      "outputs": [
        {
          "name": "",
          "type": "uint256"
        }
      ],
      "payable": false,
      "stateMutability": "view",
      "type": "function"
    },
    {
      "constant": true,
      "inputs": [
        {
          "name": "",
          "type": "uint256"
        }
      ],
      "name": "counterArray",
      "outputs": [
        {
          "name": "",
          "type": "uint256"
        }
      ],
      "payable": false,
      "stateMutability": "view",
      "type": "function"
    },
    {
      "constant": true,
      "inputs": [],
      "name": "SOME_VALUE",
      "outputs": [
        {
          "name": "",
          "type": "bool"
        }
      ],
      "payable": false,
      "stateMutability": "view",
      "type": "function"
    },
    {
      "inputs": [],
      "payable": false,
      "stateMutability": "nonpayable",
      "type": "constructor"
    },
    {
      "anonymous": false,
      "inputs": [
        {
          "indexed": true,
          "name": "from",
          "type": "address"
        },
        {
          "indexed": false,
          "name": "value",
          "type": "uint256"
        }
      ],
      "name": "Deposit",
      "type": "event"
    },
    {
      "constant": true,
      "inputs": [
        {
          "name": "offset",
          "type": "uint256"
        }
      ],
      "name": "counterWithOffset",
      "outputs": [
        {
          "name": "sum",
          "type": "uint256"
        }
      ],
      "payable": false,
      "stateMutability": "view",
      "type": "function"
    },
    {
      "constant": true,
      "inputs": [],
      "name": "returnAll",
      "outputs": [
        {
          "name": "",
          "type": "uint256"
        },
        {
          "name": "",
          "type": "uint256"
        }
      ],
      "payable": false,
      "stateMutability": "view",
      "type": "function"
    },
    {
      "constant": false,
      "inputs": [
        {
          "name": "offset",
          "type": "uint256"
        }
      ],
      "name": "countup",
      "outputs": [],
      "payable": false,
      "stateMutability": "nonpayable",
      "type": "function"
    },
    {
      "constant": false,
      "inputs": [],
      "name": "countupForEther",
      "outputs": [],
      "payable": true,
      "stateMutability": "payable",
      "type": "function"
    },
    {
      "constant": false,
      "inputs": [
        {
          "name": "",
          "type": "uint8"
        },
        {
          "name": "",
          "type": "uint8"
        },
        {
          "name": "ret",
          "type": "uint256"
        }
      ],
      "name": "twoUnnamedArgs",
      "outputs": [
        {
          "name": "",
          "type": "uint256"
        }
      ],
      "payable": true,
      "stateMutability": "payable",
      "type": "function"
    },
    {
      "constant": false,
      "inputs": [
        {
          "name": "arrayParam",
          "type": "uint256[]"
        }
      ],
      "name": "callWithArray",
      "outputs": [
        {
          "name": "",
          "type": "uint256"
        }
      ],
      "payable": false,
      "stateMutability": "nonpayable",
      "type": "function"
    }
  ],
  "bytecode": "0x608060405234801561001057600080fd5b506000808190555033600260006101000a81548173ffffffffffffffffffffffffffffffffffffffff021916908373ffffffffffffffffffffffffffffffffffffffff1602179055506104db806100686000396000f3006080604052600436106100af576000357c0100000000000000000000000000000000000000000000000000000000900463ffffffff16806301989d43146100b4578063144e61da146100df57806318e5f16b146100e9578063323e44061461014057806361bc221a1461018e57806370a5ae35146101b95780637916df08146101fa57806385b1423e146102275780638dbf1f28146102595780638e09529914610288578063e65d5abe146102c9575b600080fd5b3480156100c057600080fd5b506100c9610343565b6040518082815260200191505060405180910390f35b6100e7610349565b005b3480156100f557600080fd5b506100fe6103d6565b604051808273ffffffffffffffffffffffffffffffffffffffff1673ffffffffffffffffffffffffffffffffffffffff16815260200191505060405180910390f35b610178600480360381019080803560ff169060200190929190803560ff169060200190929190803590602001909291905050506103fc565b6040518082815260200191505060405180910390f35b34801561019a57600080fd5b506101a3610408565b6040518082815260200191505060405180910390f35b3480156101c557600080fd5b506101e46004803603810190808035906020019092919050505061040e565b6040518082815260200191505060405180910390f35b34801561020657600080fd5b5061022560048036038101908080359060200190929190505050610431565b005b34801561023357600080fd5b5061023c610471565b604051808381526020018281526020019250505060405180910390f35b34801561026557600080fd5b5061026e610489565b604051808215151515815260200191505060405180910390f35b34801561029457600080fd5b506102b36004803603810190808035906020019092919050505061048e565b6040518082815260200191505060405180910390f35b3480156102d557600080fd5b5061032d6004803603810190808035906020019082018035906020019080806020026020016040519081016040528093929190818152602001838360200280828437820191505050505050919291929050505061049c565b6040518082815260200191505060405180910390f35b60035481565b346000808282540192505081905550600160005490806001815401808255809150509060018203906000526020600020016000909192909190915055503373ffffffffffffffffffffffffffffffffffffffff167fe1fffcc4923d04b559f4d29a8bfc6cda04eb5b0d3c460751c2402c5c5cc9109c346040518082815260200191505060405180910390a2565b600260009054906101000a900473ffffffffffffffffffffffffffffffffffffffff1681565b60008190509392505050565b60005481565b60018181548110151561041d57fe5b906000526020600020016000915090505481565b8060008082825401925050819055506001600054908060018154018082558091505090600182039060005260206000200160009091929091909150555050565b600080600054610481600561048e565b915091509091565b600181565b600081600054019050919050565b60008151600381905550815190509190505600a165627a7a72305820925c17a189f99f4a0c178f28aa1187f13a7e1de35cdfb2e175989f5dd29dff990029",
  "source": "pragma solidity ^0.4.4;\r\n\r\ncontract DumbContract {\r\n    uint public counter;\r\n    bool constant public SOME_VALUE = true;\r\n    uint[] public counterArray;\r\n    address public someAddress;\r\n    uint public arrayParamLength;\r\n    \r\n    function DumbContract() public {\r\n        counter = 0;\r\n        someAddress = msg.sender;\r\n    }\r\n\r\n    function counterWithOffset(uint offset) public constant returns (uint sum) {\r\n        return counter + offset;\r\n    }\r\n\r\n    function returnAll() public constant returns (uint, uint) {\r\n        return (counter, counterWithOffset(5));\r\n    }\r\n\r\n  // typechain doesnt support function overloading currently\r\n  // function countup() public {\r\n  //   counter += 1;\r\n  //   counterArray.push(counter);\r\n  // }\r\n\r\n    function countup(uint offset) public {\r\n        counter += offset;\r\n        counterArray.push(counter);\r\n    }\r\n\r\n    function countupForEther() payable public {\r\n        counter += msg.value;\r\n        counterArray.push(counter);\r\n        emit Deposit(msg.sender, msg.value);\r\n    }\r\n\r\n    // repro for https://github.com/Neufund/TypeChain/issues/29\r\n    function twoUnnamedArgs(uint8, uint8, uint ret) payable public returns (uint) {\r\n        return ret;\r\n    }\r\n\r\n    // repro for https://github.com/Neufund/TypeChain/issues/39\r\n    function callWithArray(uint256[] arrayParam) public returns (uint) {\r\n        arrayParamLength = arrayParam.length;\r\n        return arrayParam.length;\r\n    }\r\n\r\n    event Deposit(\r\n        address indexed from,\r\n        uint value\r\n    );\r\n}",
  "sourcePath": "C:\\Users\\tireilly\\GitHub\\typescript-ethereum\\contracts\\DumbContract.sol",
  "compiler": {
    "name": "solc",
    "version": "0.4.23+commit.124ca40d.Emscripten.clang"
  },
  "schemaVersion": "2.0.0",
  "updatedAt": "2018-06-12T00:12:57.092Z"
}